S01C000050726F6A6563745F6B69745F33545F47726F75702E7372656338
S11300000C942A000C9417070C94120A0C944700C1
S11300100C9447000C9447000C9447000C94470040
S11300200C94A6010C9447000C9447000C944700D0
S11300300C9447000C9447000C9447000C94470020
S11300400C9447000C9447000C9447000C94470010
S11300500C94470011241FBECFE5D4E0DEBFCDBF12
S113006011E0A0E6B0E0E2E7FCE102C005900D92E9
S1130070A036B107D9F711E0A0E6B1E001C01D92A6
S1130080A437B107E1F70E941C040C94370E0C94BA
S11300900000B99AC1988FEF99EFA0E08150904089
S11300A0A040E1F700C00000C19A0895B998B19941
S11300B0FECFB19BFECFB199FECF089528E030E08A
S11300C0B19BFECF90EA9A95F1F7B19B03C0880FDC
S11300D0816001C0880FB199FECF2150304081F773
S11300E00895C098B89A8FE797E00197F1F700C098
S11300F00000B898E7E1F1E03197F1F700C00000A3
S113010086B3E7E6F6E03197F1F700C000008170AE
S11301100895882369F0C098B89A80E28A95F1F727
S1130120B8988FEF90E00197F1F700C000000895B0
S1130130C098B89A8FEE90E00197F1F700C00000E4
S1130140B89895E39A95F1F700000895C098B89A85
S113015080E28A95F1F7B898E0E3EA95F1F796B36F
S1130160EBEDF0E03197F1F700C0000081E090FF83
S113017080E00895CF93DF93C8E0D0E00E94A6000A
S1130180879588278795D695D82BC150B9F78D2F99
S1130190DF91CF910895CF93DF93D82FC8E08D2FAF
S11301A081700E948900D695C150C9F7DF91CF9123
S11301B00895CF93DF930E9471008CEC0E94CB00D2
S11301C084E40E94CB000E94A6008823E1F30E94ED
S11301D071008CEC0E94CB008EEB0E94CB000E943D
S11301E0BA00D82F0E94BA00C82F0E947100D2957D
S11301F0DF702D2F30E08C2F90E087709070829507
S11302009295907F9827807F9827822B932BDF915C
S1130210CF91089511B886E480B984E086BF08952B
S113022084EA86BF06B607FEFDCF089583B984E845
S113023086BF06B607FEFDCF089584E986BF8FE129
S11302409EE40197F1F700C0000008958295880F9D
S1130250880F807C846886BF06B607FEFDCF83B115
S113026008958BB3806F8BBBDA9A8AB38F708ABB85
S113027089B3DA98DA9A99B3DA9892959F70807F65
S1130280892B08959BB39F70282F207F292B2BBB8C
S1130290DA9ADA988295807F982B9BBBDA9ADA985F
S11302A008958FE39FE10197F1F700C000000895DE
S11302B08FEF8ABB8ABBD898DA98DA9ADD9ADA98F3
S11302C00E94510188E20E9442010E94510182E091
S11302D00E9442010E9451018CE00E9442010E944E
S11302E0510186E00E9442010E9451010895D8986C
S11302F082E00E9442010E9451010895D89882959B
S1130300880F880F807C860F815C0E9442010E94C6
S113031051010895D89881E00E9442010E94510140
S11303200895D89A0E9442010E9451010895CF93E2
S1130330DF93EC018881882331F021960E9491019A
S113034089918823D9F7DF91CF9108951F920F9255
S11303500FB60F9211240F931F932F933F934F9334
S11303605F936F937F938F939F93AF93BF93EF9319
S1130370FF93CF93DF93CDB7DEB76497DEBFCDBFD6
S113038000D000D000D0EDB7FEB731968E010F5FDC
S11303901F4FADB7BEB712961C930E93119780E60C
S11303A090E09383828380916201909163019583AD
S11303B084830E94600B8DB79EB706960FB6F8949F
S11303C09EBF0FBE8DBFC8010E945E0A00D000D040
S11303D000D0EDB7FEB73196ADB7BEB712961C93F9
S11303E00E93119783E790E09383828380916E014B
S11303F0848315820E94600B8DB79EB706960FB654
S1130400F8949EBF0FBE8DBFC8010E945E0A85EEA0
S113041098E49DBD8CBD6496DEBFCDBFDF91CF91C6
S1130420FF91EF91BF91AF919F918F917F916F91C8
S11304305F914F913F912F911F910F910F900FBE9C
S11304400F901F9018950E9449000E9456000E9428
S11304505E0080936E010E945E0080936C0108959B
S1130460CF93DF930E94100180ED0E94160180E07B
S11304700E9416010E941D010E94100181ED0E943C
S1130480160181E00E9426018093670181E00E94A9
S113049026018093660181E00E942601C5E6D1E031
S11304A0888381E00E9426018E8381E00E942601D8
S11304B08B8381E00E9426018C8380E00E942601C8
S11304C08D830E941D01DF91CF9108956F927F92D9
S11304D08F929F92AF92BF92CF92DF92EF92FF9250
S11304E00F931F93CF93DF93CDB7DEB76C970FB6FF
S11304F0F894DEBF0FBECDBFF82E162FD22EDE012C
S11305001196E3E9F0E08CE101900D928150E1F75E
S113051000D000D000D0EDB7FEB731960F2EFFE625
S1130520AF2EF1E0BF2EF02DADB7BEB71296BC9240
S1130530AE9211970F2EF4E88F2EF0E09F2EF02D3F
S113054093828282448315820E94600B2DB73EB74A
S11305502A5F3F4F0FB6F8943EBF0FBE2DBF81E018
S113056061E00E947E01C5010E94970181E063E081
S11305700E947E0188E890E00E94970100D000D09C
S113058000D0EDB7FEB73196ADB7BEB71296BC92A8
S1130590AE92119793828282148315820E94600B1B
S11305A02DB73EB72A5F3F4F0FB6F8943EBF0FBE3C
S11305B02DBF81E064E00E947E01C5010E94970185
S11305C081E066E00E947E018AE30E94910100D0EE
S11305D000D000D0EDB7FEB73196ADB7BEB71296D6
S11305E0BC92AE92119793828282F48215820E9409
S11305F0600B2DB73EB72A5F3F4F0FB6F8943EBF4E
S11306000FBE2DBF81E067E00E947E01C5010E94FC
S1130610970181E06AE00E947E018D2D67E00E94CF
S11306202D0B892F90E0880F991F880F991FA1E047
S1130630B0E0AC0FBD1F8A0F9B1F0E949701F89476
S11306400E942302789481E06EE00E947E0100D033
S113065000D000D0EDB7FEB73196ADB7BEB7129655
S1130660BC92AE9211970F2EFAE86F2EF0E07F2E17
S1130670F02D7382628280916E01848315820E94C0
S1130680600B2DB73EB72A5F3F4F0FB6F8943EBFBD
S11306900FBE2DBFC5010E94970181E060E10E9459
S11306A07E0185E20E94910100D000D000D0EDB718
S11306B0FEB73196ADB7BEB71296BC92AE92119703
S11306C093828282048315820E94600B2DB73EB709
S11306D02A5F3F4F0FB6F8943EBF0FBE2DBF82E096
S11306E061E00E947E01C5010E94970182E063E0FF
S11306F00E947E010EE810E0C8010E94970100D01C
S113070000D000D0EDB7FEB73196ADB7BEB71296A4
S1130710BC92AE92119793828282E48215820E94E7
S1130720600B2DB73EB72A5F3F4F0FB6F8943EBF1C
S11307300FBE2DBF82E064E00E947E01C5010E94CD
S1130740970182E066E00E947E01C8010E94970141
S113075082E067E00E947E0180E990E00E949701B8
S113076000D000D000D0EDB7FEB73196ADB7BEB71C
S11307701296BC92AE92119793828282C4821582A1
S11307800E94600B2DB73EB72A5F3F4F0FB6F89417
S11307903EBF0FBE2DBF82E069E00E947E01C5010D
S11307A00E949701F8940E94D9009093630180936A
S11307B06201789400D000D000D0EDB7FEB7319636
S11307C0ADB7BEB71296BC92AE9211977382628295
S11307D08091620190916301958384830E94600BF0
S11307E02DB73EB72A5F3F4F0FB6F8943EBF0FBEFA
S11307F02DBF82E06EE00E947E01C5010E94970138
S113080082E060E10E947E0183E40E9491016C9683
S11308100FB6F894DEBF0FBECDBFDF91CF911F910D
S11308200F91FF90EF90DF90CF90BF90AF909F908B
S11308308F907F906F900895CF93DF93CDB7DEB7FD
S1130840A2970FB6F894DEBF0FBECDBF0E94580129
S11308500E948A010E940A010E94520ADB9A8FEFC9
S113086090E7A2E081509040A040E1F700C0000072
S113087081E066E00E947E018FEA90E00E94970189
S11308808FEF97EAA1E681509040A040E1F700C0C5
S113089000000E948A0181E062E00E947E01DE0184
S11308A01196E7EBF0E08FE001900D928150E1F7B3
S11308B08E010F5F1F4FDE011F96B8A3AF8FF801A3
S11308C081918F010E9491018FEF91EEA4E08150FC
S11308D09040A040E1F700C00000AF8DB8A10A1716
S11308E01B0769F78FEF93EDA0E381509040A04080
S11308F0E1F700C0000082E062E00E947E01DE01B8
S11309005096E6ECF0E08FE001900D928150E1F713
S11309108E01005F1F4FDE015E96BAA3A9A3AA242D
S11309206894A1F80F2EF1E18F2EF02D82E06A2D4C
S11309300E947E01F80181918F010E949101682D2E
S11309406A1982E00E947E01A9A1BAA18E91BAA37C
S1130950A9A30E9491018FEF91EEA4E081509040F1
S1130960A040E1F700C00000A39499E0A916F1F6B5
S11309708FEF93EDA0E381509040A040E1F700C0D9
S113098000000E948A018FEF91EEA4E08150904014
S1130990A040E1F700C0000083E081BB8CEF82BB84
S11309A085E08EBD85EE98E49DBD8CBD84E089BF55
S11309B085B78A6085BF8BB7806C8BBF78940F2E08
S11309C0F7E68F2EF1E09F2EF02D34010894610894
S11309D071080F2EFEEFAF2EFFEFBF2EF02DA80CE7
S11309E0B91C0F2EF6E04F2E5524F02D4A0C5B1C3B
S11309F00F2EF3E02F2E3324F02D2A0C3B1C0E94E3
S1130A003002D4018C91F3016081D5014C91F20143
S1130A102081D1010C91E9E6F1E0E080AAE6B1E0A1
S1130A20CC900E946602809160018F5F8093600188
S1130A30843171F410926001DB988FEF99E6A8E19C
S1130A4081509040A040E1F700C00000DB9AD7CF6E
S1130A508FEF99E6A8E181509040A040E1F700C0F3
S1130A600000CDCF282F22952F7030E0220F331FA6
S1130A70C901880F991F880F991F280F391F6F709C
S1130A80C901860F911D08956AE070E00E94390B38
S1130A906295607F860F08952F923F924F925F92E6
S1130AA06F927F928F929F92AF92BF92CF92DF927A
S1130AB0EF92FF920F931F93CF93DF93C82F162FBC
S1130AC08BB78F7B8BBF842F642F0E9432056C0100
S1130AD0812F612F0E9432055C018C2F6C2F0E94A4
S1130AE032054C010E948A0112E0CFE6D1E00F2EBC
S1130AF0FAE8EF2EF0E0FF2EF02D0F2EF5ED6F2E1D
S1130B00F0E07F2EF02D02E00F2EF7E12F2E33249C
S1130B10F02D442455248CE00E94420100D000D0E2
S1130B2000D0EDB7FEB73196ADB7BEB71296DC93E1
S1130B30CE931197F382E282D582C4820E94600B25
S1130B40EDB7FEB736960FB6F894FEBF0FBEEDBFF5
S1130B5081E061E00E947E01CE010E94970181E064
S1130B6063E00E947E018AE30E94910100D000D0DC
S1130B7000D0EDB7FEB73196ADB7BEB71296DC9391
S1130B80CE931197F382E282B582A4820E94600B15
S1130B90EDB7FEB736960FB6F894FEBF0FBEEDBFA5
S1130BA081E064E00E947E01CE010E94970181E011
S1130BB066E00E947E018AE30E94910100D000D089
S1130BC000D0EDB7FEB73196ADB7BEB71296DC9341
S1130BD0CE931197F382E282958284820E94600B05
S1130BE0EDB7FEB736960FB6F894FEBF0FBEEDBF55
S1130BF081E067E00E947E01CE010E94970181E0BE
S1130C006AE00E947E01C3010E94970181E0612F86
S1130C100E947E018EE00E944201849930C012300D
S1130C2041F4F7E1CF16D104DCF40894C11CD11CC3
S1130C301CC0153041F48BE3A816B10499F0089454
S1130C40A11CB11C12C0183041F49BE38916910415
S1130C5059F00894811C911C08C01B3031F459C010
S1130C60620103C0520101C042018FEF92E5A7E087
S1130C7081509040A040E1F700C0000040C0859939
S1130C8035C0123039F4C114D104C9F00894C10834
S1130C90D10822C0153039F4A114B10491F008949C
S1130CA0A108B10819C0183039F48114910479F0FD
S1130CB008948108910810C01B3071F42AC06101A6
S1130CC00BC00F2EFBE3AF2EBB24F02D05C00F2E5F
S1130CD0FBE38F2E9924F02D8FEF92E5A7E081504E
S1130CE09040A040E1F700C0000009C0829907C00D
S1130CF01A3010F41D5F01C0102F0E948A018FEF7B
S1130D0092E5A7E081509040A040E1F700C00000C8
S1130D1002CFC6010E944405182FC5010E94440554
S1130D20082FC4010E944405C82E0E94100180EDC2
S1130D300E94160180E00E9416010E941D010E947B
S1130D40100181ED0E94160181E00E942601C7E690
S1130D50D1E08093670181E00E942601DE018E9339
S1130D607D0181E00E9426012297888381E00E9410
S1130D7026018E8381E00E9426018B8381E00E94FC
S1130D8026018C8380E00E9426018D830E941D0130
S1130D901883F7010083C09267010E94100180ED5F
S1130DA00E94160180E00E941601809167010E9452
S1130DB01601D7018C910E94160188810E941601A8
S1130DC08E810E9416018B810E9416018C810E94E3
S1130DD016018D810E9416010E941D010E948A0144
S1130DE08CE00E94420180916701F7016081488193
S1130DF02E810B81EC80CD800E9466028AB78064CC
S1130E008ABF8BB780648BBFDF91CF911F910F9105
S1130E10FF90EF90DF90CF90BF90AF909F908F9016
S1130E207F906F905F904F903F902F9008951F9206
S1130E300F920FB60F921124CF92EF920F932F932C
S1130E403F934F935F936F937F938F939F93AF934E
S1130E50BF93EF93FF938FEF94E3ACE08150904006
S1130E60A040E1F700C000000E948A01E5E6F1E03D
S1130E708091670160916601408126810381E4804D
S1130E80C5800E944C05FF91EF91BF91AF919F9156
S1130E908F917F916F915F914F913F912F910F911E
S1130EA0EF90CF900F900FBE0F901F9018952F9238
S1130EB03F924F925F926F927F928F929F92AF92E6
S1130EC0BF92CF92DF92EF92FF920F931F93CF9333
S1130ED0DF93CDB7DEB7A1970FB6F894DEBF0FBE90
S1130EE0CDBF8BB78F778BBFDE011696E3E9F0E0B9
S1130EF08CE101900D928150E1F7822F622F0E94C4
S1130F0032055C01802F602F0E9432054C018E2D2A
S1130F106E2D0E9432053C018C2D6C2D0E943205F1
S1130F202C010E948A01CC246894C1F88E010F5FC1
S1130F301F4F0F2EFAE8EF2EF0E0FF2EF02D0F2EAC
S1130F40F5ED2F2EF0E03F2EF02DDD246894D1F83E
S1130F508CE00E94420100D000D000D0EDB7FEB773
S1130F603196ADB7BEB712961C930E931197F382C8
S1130F70E282958284820E94600BEDB7FEB73696BA
S1130F800FB6F894FEBF0FBEEDBF81E061E00E9492
S1130F907E01C8010E94970181E063E00E947E0106
S1130FA08FE20E94910100D000D000D0EDB7FEB7CF
S1130FB03196ADB7BEB712961C930E931197F38278
S1130FC0E282758264820E94600BEDB7FEB73696AA
S1130FD00FB6F894FEBF0FBEEDBF81E064E00E943F
S1130FE07E01C8010E94970181E066E00E947E01B3
S1130FF08FE20E94910100D000D000D0EDB7FEB77F
S11310003196ADB7BEB712961C930E931197F38227
S1131010E282558244820E94600BEDB7FEB7369699
S11310200FB6F894FEBF0FBEEDBF81E067E00E94EB
S11310307E01C8010E94970181E06AE00E947E015E
S1131040C501880F991F880F991F26E030E02C0FE7
S11310503D1F820F931F0E94970181E06EE00E9462
S11310607E01C1010E94970181E06C2D0E947E01E6
S11310708EE00E94420186994AC032E0C31641F4D0
S11310806FE18616910449F10894811C911C35C0C6
S113109085E0C81641F49CE06916710411F10894C6
S11310A0611C711C2AC0A8E0CA1641F4B3E64B16B1
S11310B05104D9F00894411C511C1FC0ECE0CE1619
S11310C041F4F6E0AF16B104B4F40894A11CB11CC9
S11310D014C02FE0C21689F491C088249924839403
S11310E00CC066247724639408C00F2EFBE04F2EB7
S11310F05524F02D02C0AA24BB248FEF92E5A7E06B
S113110081509040A040E1F700C000006DC0879975
S113111050C092E0C91641F4A1E08A16910441F14D
S11311200894810891083BC0B5E0CB1641F4E1E096
S11311306E16710419F108946108710830C0F8E062
S1131140CF1641F42BE042165104F1F00894410803
S1131150510825C03CE0C31639F4A114B104D1F000
S11311600894A108B1081BC06FE0C616C1F448C0BA
S11311700F2EFFE18F2E9924F02D11C00F2EFCE0CD
S11311806F2E7724F02D0BC00F2EF3E64F2E55242F
S1131190F02D05C00F2EF6E0AF2EBB24F02D8FEFFF
S11311A092E5A7E081509040A040E1F700C0000024
S11311B01BC0839919C09FE0C91649F0ACE0CA1658
S11311C041F0B8E0CB1651F0E3E0CE0E0BC0CD2CCD
S11311D009C00F2EFFE0CF2EF02D04C00F2EFCE02F
S11311E0CF2EF02D0E948A018FEF92E5A7E0815067
S11311F09040A040E1F700C00000AACEA40101C0C5
S1131200A40121E030E09BE06916710411F020E0B4
S113121030E081E090E0A9E06A16710411F080E00A
S113122090E0282B392B91E0B4E06B16710409F09F
S113123090E081E0E6E06E16710409F080E0892B0D
S113124090E0822B932B009721F04F31510571F5DB
S11312501CC0F2E06F16710449F5CA014D97833042
S1131260910520F52CE042165104A9F080E190E0AC
S113127048165906B1F0049684369105C9F70F2E25
S1131280FCE18F2E9924F02D11C00F2EFEE18F2E3C
S11312909924F02D0BC00F2EFDE18F2E9924F02DF3
S11312A005C00F2EFDE18F2E9924F02DC5010E945B
S11312B04405A82EC4010E944405882EC3010E943F
S11312C04405682EC2010E944405482E0E94100164
S11312D080ED0E94160180E00E9416010E941D010B
S11312E00E94100181ED0E94160181E00E942601F6
S11312F007E611E08093670181E00E942601D8018E
S11313008E937D0181E00E9426010F2EFEEFCF2EE9
S1131310FFEFDF2EF02DC00ED11EF601808381E099
S11313200E942601D60116968C9381E00E94260124
S1131330F601838381E00E942601D60114968C93E2
S113134080E00E942601F60185830E941D01D601DA
S11313501696AC92169713968C92139714966C92D9
S1131360149715964C920E94100180ED0E9416016C
S113137080E00E941601809167010E941601F70126
S113138080810E941601D6018C910E941601F601FB
S113139086810E941601D60113968C910E94160133
S11313A0F60184810E941601D60115968C910E9443
S11313B016010E941D010E948A018CE00E944201D4
S11313C080916701F7016081D6014C9116962C91AA
S11313D0169713960C9113971496EC9014971596F0
S11313E0CC900E9466028AB780688ABF8BB78068F7
S11313F08BBFA1960FB6F894DEBF0FBECDBFDF91B1
S1131400CF911F910F91FF90EF90DF90CF90BF90FD
S1131410AF909F908F907F906F905F904F903F9090
S11314202F9008951F920F920FB60F921124CF920E
S1131430EF920F932F933F934F935F936F937F9309
S11314408F939F93AF93BF93EF93FF938FEF94E3A7
S1131450ACE081509040A040E1F700C000000E9441
S11314608A01E5E6F1E080916701609166014081BF
S113147026810381E480C5800E945707FF91EF9184
S1131480BF91AF919F918F917F916F915F914F9198
S11314903F912F910F91EF90CF900F900FBE0F902F
S11314A01F9018951BB888E08AB996E890BD10BCC7
S11314B089B908958CB95D9BFECF0895CF93DF93CE
S11314C0EC018881882331F021960E945A0A89917F
S11314D08823D9F7DF91CF91089588ED90E00E9499
S11314E05E0A8FEF99EFA0E081509040A040E1F7B1
S11314F000C000008DED90E00E945E0A8FEF99EF2E
S1131500A0E081509040A040E1F700C000008BEEC5
S113151090E00E945E0A8FEF99EFA0E08150904026
S1131520A040E1F700C000000895CF92DF92EF924F
S1131530FF920F931F93CF93DF93CDB7DEB7C45BB6
S1131540D0400FB6F894DEBF0FBECDBF7C016B0157
S113155087E191E00E945E0A8FEF91EEA4E0815052
S11315609040A040E1F700C000008E010F5F1F4FC4
S113157086E9D8011D928A95E9F7EDB7FEB7389749
S11315800FB6F894FEBF0FBEEDBF3196ADB7BEB730
S113159012961C930E93119780E491E093838283B7
S11315A0F582E482D782C6820E94600B0F2EF7E98F
S11315B0EF2EFF24F02DEC0EFD1E8EE1F7011192AB
S11315C08A95E9F7D8010D900020E9F7CD01801B39
S11315D0910B0F900F90EDB7FEB73196ADB7BEB734
S11315E01296FC92EE9211972FE431E0338322831A
S11315F00196958384830E94600BEDB7FEB73696FF
S11316000FB6F894FEBF0FBEEDBFC7010E945E0A7D
S11316108FEF90E7A2E081509040A040E1F700C036
S11316200000C8010E945E0A8FEF91EEA4E0815091
S11316309040A040E1F700C00000CC54DF4F0FB64B
S1131640F894DEBF0FBECDBFDF91CF911F910F91F4
S1131650FF90EF90DF90CF900895991B79E004C03C
S1131660991F961708F0961B881F7A95C9F78095DD
S1131670089597FB092E07260AD077FD04D00CD0D5
S113168006D000201AF4709561957F4F0895F6F7FF
S1131690909581959F4F0895AA1BBB1B51E107C0EC
S11316A0AA1FBB1FA617B70710F0A61BB70B881FEE
S11316B0991F5A95A9F780959095BC01CD0108957D
S11316C0AEE0B0E0E6E6FBE00C940E0E0D891E8958
S11316D086E08C831A8309838FEF9FE79E838D8333
S11316E0AE01475E5F4FCE0101966F89788D0E94EF
S11316F0820BEF81F885E00FF11F10822E96E4E053
S11317000C942A0EADE0B0E0E8E8FBE00C94000E87
S11317103C017D876C875A01FC0117821682838104
S113172081FFC8C12E010894411C511CF30193810F
S1131730EC85FD8593FD859193FF8191FD87EC8771
S1131740882309F4B3C1853241F493FD859193FF55
S11317508191FD87EC87853229F490E0B3010E94E2
S1131760760DE4CFFF24EE2410E01032B0F48B3277
S113177069F08C3228F4803251F0833271F40BC05A
S11317808D3239F0803349F411602CC0126014603A
S113179029C0186027C0106125C017FD2EC0282F4E
S11317A020532A3098F416FF08C08F2D880FF82E86
S11317B0FF0CFF0CF80EF20E15C08E2D880FE82ECC
S11317C0EE0CEE0CE80EE20E10620CC08E3221F428
S11317D016FD6CC1106406C08C3611F4106802C08A
S11317E0883659F4EC85FD8593FD859193FF8191AD
S11317F0FD87EC87882309F0B8CF982F9554933050
S113180018F09052933038F424E030E0A20EB31E66
S11318103FE339830FC0833631F0833781F083355A
S113182009F05AC022C0F5018081898322E030E0AA
S1131830A20EB31E21E0C22ED12C420114C092E0AC
S1131840292E312C2A0C3B1CF5018080918016FF37
S113185003C06F2D70E002C06FEF7FEFC4010E94E0
S11318606B0D6C0151011F7715C082E0282E312CBD
S11318702A0C3B1CF5018080918016FF03C06F2D5C
S113188070E002C06FEF7FEFC4010E94600D6C0135
S11318901068510113FD1CC006C080E290E0B30142
S11318A00E94760DEA948E2D90E0C816D906A8F30E
S11318B00FC0F40117FD859117FF81914F0190E04E
S11318C0B3010E94760DE110EA940894C108D1088E
S11318D0C114D10471F7E7C0843611F0893651F58B
S11318E0F50117FF07C080819181A281B38124E0B3
S11318F030E008C080819181AA2797FDA095BA2F76
S113190022E030E0A20EB31E012F0F76B7FF08C00D
S1131910B095A095909581959F4FAF4FBF4F0068AC
S1131920BC01CD01A2012AE030E00E94A20DD82E14
S1131930D4183FC0853721F41F7E2AE030E020C050
S1131940197F8F36A9F0803720F4883509F0AEC0AE
S11319500BC0803721F0883709F0A8C001C010619E
S113196014FF09C0146007C014FF08C0166006C045
S113197028E030E005C020E130E002C020E132E0A0
S1131980F50117FF07C0608171818281938144E072
S113199050E006C06081718180E090E042E050E058
S11319A0A40EB51EA2010E94A20DD82ED418012F98
S11319B00F7706FF09C00E7FDF1430F404FF06C062
S11319C002FD04C00F7E02C01D2D01C01F2D802FFB
S11319D090E004FF0CC0FE01ED0DF11D20812033C9
S11319E011F4097E09C002FF06C01E5F05C0867897
S11319F09070009709F01F5F802E992403FD12C098
S1131A0000FF0DC0FD2C1E1550F4FE0CF11A1E2D06
S1131A1006C080E290E0B3010E94760D1F5F1E15A0
S1131A20C0F304C01E1510F4E11A01C0EE2484FEB4
S1131A300FC080E390E0B3010E94760D82FE1FC0C8
S1131A4081FE03C088E590E010C088E790E00DC0F7
S1131A50C40186789070009791F081FC02C080E206
S1131A6001C08BE207FD8DE290E0B3010E94760D88
S1131A7006C080E390E0B3010E94760DFA94DF146F
S1131A80C0F3DA94F201ED0DF11D808190E0B30111
S1131A900E94760DDD20A9F706C080E290E0B30134
S1131AA00E94760DEA94EE20C1F740CEF3018681C0
S1131AB0978102C08FEF9FEF2D96E2E10C941C0EEC
S1131AC0FC010590615070400110D8F78095909505
S1131AD08E0F9F1F0895FC0161507040019001100A
S1131AE0D8F7809590958E0F9F1F08950F931F939D
S1131AF0CF93DF938C01EB018B8181FF1BC082FFAD
S1131B000DC02E813F818C819D812817390764F493
S1131B10E881F9810193F983E88306C0E885F985B2
S1131B20802F0995009731F48E819F8101969F83C0
S1131B308E8302C00FEF1FEFC801DF91CF911F9179
S1131B400F910895FA01AA27283051F1203181F12B
S1131B50E8946F936E7F6E5F7F4F8F4F9F4FAF4FB1
S1131B60B1E03ED0B4E03CD0670F781F891F9A1FC4
S1131B70A11D680F791F8A1F911DA11D6A0F711D78
S1131B80811D911DA11D20D009F468943F912AE084
S1131B90269F11243019305D3193DEF6CF0108956C
S1131BA0462F4770405D4193B3E00FD0C9F7F6CF9D
S1131BB0462F4F70405D4A3318F0495D31FD405265
S1131BC0419302D0A9F7EACFB4E0A69597958795FB
S1131BD077956795BA95C9F70097610571050895DA
S1131BE09B01AC010A2E0694579547953795279586
S1131BF0BA95C9F7620F731F841F951FA01D08951E
S1131C002F923F924F925F926F927F928F929F9208
S1131C10AF92BF92CF92DF92EF92FF920F931F93F6
S1131C20CF93DF93CDB7DEB7CA1BDB0B0FB6F894A7
S1131C30DEBF0FBECDBF09942A88398848885F84E7
S1131C406E847D848C849B84AA84B984C884DF8058
S1131C50EE80FD800C811B81AA81B981CE0FD11D3C
S1131C600FB6F894DEBF0FBECDBFED010895F89412
S1051C70FFCFA0
S1131C7254656D70657261747572653A20256420CD
S1131C82430A0048756D69646974793A20256420B1
S1131C9225250A00253278003A00253264002F00F7
S1131CA23230005341540053554E004D4F4E0054B0
S1131CB2554500574544005448550046524900577B
S1131CC2454C434F4D45002E2E2E2E4B544D54352C
S1131CD2392E2E2E2E002D2D2D33542047524F55A2
S1131CE2502D2D2D004F4B0041540D0A0041542B11
S1131CF243574D4F44453D310D0A0041542B435740
S1131D024A41503D22436F6E6E6563746966792D54
S1131D1254756E67222C2274756E673635393662B5
S1131D226B686E220D0A0041542B434950535441AF
S1131D3252543D22544350222C223139322E313610
S1131D42382E3135362E31222C383038300D0A00F7
S1131D525550444154452025642025640D0A004110
S1131D62542B43495053454E443D25640D0A00000B
S9030000FC
