S018000050726F6A6563744B54476865704E6F692E73726563EC
S11300000C942A000C9447000C9447000C9447006D
S11300100C9447000C9447000C9447000C94470040
S11300200C947C010C9447000C9447000C944700FA
S11300300C9447000C9447000C9447000C94470020
S11300400C9447000C9447000C9447000C94470010
S11300500C94470011241FBECFE5D4E0DEBFCDBF12
S113006011E0A0E6B0E0EEE5FAE102C005900D92E1
S1130070AC33B107D9F711E0ACE3B1E001C01D9294
S1130080AA34B107E1F70E9404090C942D0D0C94D5
S11300900000C398BB9A8FE797E00197F1F700C07F
S11300A00000BB98E7E1F1E03197F1F700C00000F0
S11300B086B3E7E6F6E03197F1F700C000008870F8
S11300C00895882369F0C398BB9A80E28A95F1F772
S11300D0BB988FEF90E00197F1F700C000000895FE
S11300E0C398BB9A8FEE90E00197F1F700C000002F
S11300F0BB9895E39A95F1F700000895C398BB9ACD
S113010080E28A95F1F7BB98E0E3EA95F1F796B3BC
S1130110EBEDF0E03197F1F700C0000081E093FFD0
S113012080E00895CF93DF93C8E0D0E00E947E0082
S1130130879588278795D695D82BC150B9F78D2FE9
S1130140DF91CF910895CF93DF93D82FC8E08D2FFF
S113015081700E946100D695C150C9F7DF91CF919B
S11301600895CF93DF930E9449008CEC0E94A30072
S113017084E40E94A3000E947E008823E1F30E948D
S113018049008CEC0E94A3008EEB0E94A3000E9405
S11301909200D82F0E949200C82F0E9449008D2FF0
S11301A082958F702C2F30E0277030702295329515
S11301B0307F3227207F3227822BDF91CF91089521
S11301C011B886E480B984E086BF089584EA86BFC6
S11301D006B607FEFDCF089583B984E886BF06B648
S11301E007FEFDCF089584E986BF8FE19EE4019761
S11301F0F1F700C0000008958295880F880F807C75
S1130200846886BF06B607FEFDCF83B108958BB31D
S1130210806F8BBBDA9A8AB38F708ABB89B3DA9802
S1130220DA9A99B3DA9892959F70807F892B089512
S11302309BB39F70282F207F292B2BBBDA9ADA9847
S11302408295807F982B9BBBDA9ADA9808958FE386
S11302509FE10197F1F700C0000008958FEF8ABB7A
S11302608ABBD898DA98DA9ADD9ADA980E9427013C
S113027088E20E9418010E94270182E00E9418016E
S11302800E9427018CE00E9418010E94270186E049
S11302900E9418010E9427010895D89882E00E94C4
S11302A018010E9427010895D8988295880F880F15
S11302B0807C860F815C0E9418010E9427010895AA
S11302C0D89881E00E9418010E9427010895D89AC5
S11302D00E9418010E9427010895CF93DF93EC0137
S11302E08881882331F021960E94670189918823AF
S11302F0D9F7DF91CF9108951F920F920FB60F9205
S113030011242F933F934F935F936F937F938F9316
S11303109F93AF93BF93EF93FF9380913C0190E041
S11303200E94A30984EE98E49DBD8CBDFF91EF91DA
S1130330BF91AF919F918F917F916F915F914F91F9
S11303403F912F910F900FBE0F901F901895CF9350
S1130350DF930E94E60080ED0E94EC0080E00E94A2
S1130360EC000E94F3000E94E60081ED0E94EC0084
S113037081E00E94FC008093400181E00E94FC0027
S113038080933F0181E00E94FC00CEE3D1E08883AA
S113039081E00E94FC008E8381E00E94FC008B833C
S11303A081E00E94FC008C8380E00E94FC008D832D
S11303B00E94F300DF91CF910895282F22952F708A
S11303C030E0220F331FC901880F991F880F991F2E
S11303D0280F391F6F70C901860F911D08956AE0B7
S11303E070E00E942F0A6295607F860F08952F9215
S11303F03F924F925F926F927F928F929F92AF92B1
S1130400BF92CF92DF92EF92FF920F931F93CF93FD
S1130410DF93C82F162F842F642F0E94DD016C01F7
S1130420812F612F0E94DD015C018C2F6C2F0E94B3
S1130430DD014C010E94600112E0C5E4D1E00F2E01
S1130440F0E6EF2EF0E0FF2EF02D0F2EF4E66F2EE7
S1130450F0E07F2EF02D02E00F2EF7E12F2E332453
S1130460F02D442455248CE00E94180100D000D0C3
S113047000D0EDB7FEB73196ADB7BEB71296DC9398
S1130480CE931197F382E282D582C4820E94560AE7
S1130490EDB7FEB736960FB6F894FEBF0FBEEDBFAC
S11304A081E061E00E945401CE010E946D0181E06F
S11304B063E00E9454018AE30E94670100D000D0E7
S11304C000D0EDB7FEB73196ADB7BEB71296DC9348
S11304D0CE931197F382E282B582A4820E94560AD7
S11304E0EDB7FEB736960FB6F894FEBF0FBEEDBF5C
S11304F081E064E00E945401CE010E946D0181E01C
S113050066E00E9454018AE30E94670100D000D093
S113051000D0EDB7FEB73196ADB7BEB71296DC93F7
S1130520CE931197F382E282958284820E94560AC6
S1130530EDB7FEB736960FB6F894FEBF0FBEEDBF0B
S113054081E067E00E945401CE010E946D0181E0C8
S11305506AE00E945401C3010E946D0181E0612F91
S11305600E9454018EE00E941801869930C0123016
S113057041F4F7E1CF16D104DCF40894C11CD11C7A
S11305801CC0153041F48BE3A816B10499F008940B
S1130590A11CB11C12C0183041F49BE389169104CC
S11305A059F00894811C911C08C01B3031F459C0C7
S11305B0620103C0520101C042018FEF92E5A7E03E
S11305C081509040A040E1F700C0000040C08599F0
S11305D035C0123039F4C114D104C9F00894C108EB
S11305E0D10822C0153039F4A114B10491F0089453
S11305F0A108B10819C0183039F48114910479F0B4
S113060008948108910810C01B3071F42AC061015C
S11306100BC00F2EFBE3AF2EBB24F02D05C00F2E15
S1130620FBE38F2E9924F02D8FEF92E5A7E0815004
S11306309040A040E1F700C0000009C0849907C0C1
S11306401A3010F41D5F01C0102F0E9460018FEF5B
S113065092E5A7E081509040A040E1F700C000007F
S113066002CFC6010E94EF01182FC5010E94EF01BD
S1130670082FC4010E94EF01C82E0E94E60080EDFD
S11306800E94EC0080E00E94EC000E94F3000E94B3
S1130690E60081ED0E94EC0081E00E94FC00C0E4D1
S11306A0D1E08093400181E00E94FC00DE018E9342
S11306B07D0181E00E94FC002297888381E00E94F2
S11306C0FC008E8381E00E94FC008B8381E00E9409
S11306D0FC008C8380E00E94FC008D830E94F30068
S11306E01883F7010083C09240010E94E60080ED68
S11306F00E94EC0080E00E94EC00809140010E9486
S1130700EC00D7018C910E94EC0088810E94EC00DF
S11307108E810E94EC008B810E94EC008C810E94EF
S1130720EC008D810E94EC000E94F3000E946001A5
S11307308CE00E94180180914001F701608148819A
S11307402E810B81EC80CD800E94A904DF91CF9192
S11307501F910F91FF90EF90DF90CF90BF90AF90DB
S11307609F908F907F906F905F904F903F902F90CD
S113077008953F924F925F926F927F928F929F92D1
S1130780AF92BF92CF92DF92EF92FF920F931F939B
S1130790CF93DF93CDB7DEB766970FB6F894DEBF7D
S11307A00FBECDBF682E562E442E322E9E2C8C2C7E
S11307B0DE01119686E1FD0111928A95E9F7E8E7D9
S11307C0F0E08AE001900D928150E1F71B86FE0172
S11307D03C96A3E8B0E08AE00D9001928150E1F7E5
S11307E01E8A10E00F2EF7E6EF2EF0E0FF2EF02D1C
S11307F00F2EF2E7CF2EF0E0DF2EF02D0F2EF5E7CF
S1130800AF2EF0E0BF2EF02D772481E065E00E944A
S11308105401C7010E946D0182E061E00E9454010D
S1130820C6010E946D0182E06FE00E945401C5017F
S11308300E946D0182E065E00E945401412F50E066
S1130840CA01880F991F9A01220F331F220F331FE9
S1130850220F331F820F931F840F951F21E030E076
S11308602C0F3D1F820F931F0E946D01869911C0AA
S1130870112311F0115001C011E08FEF94E3ACE0AB
S113088081509040A040E1F700C000000E94600148
S11308903EC0859911C0113011F01F5F01C0172DA2
S11308A08FEF94E3ACE081509040A040E1F700C0AA
S11308B000000E9460012BC0849929C08FEF93EC43
S11308C0A9E081509040A040E1F700C000000E94E0
S11308D06001112319F0113021F509C0862D652D11
S11308E0442D232DE92CC82C0E94F7011AC0862D13
S11308F090E0652D70E0442D50E0232D30E010E0B1
S1130900E92CFF24C82CDD240E9452060AC08FEF74
S113091092E5A7E081509040A040E1F700C00000BC
S113092074CF66960FB6F894DEBF0FBECDBFDF91CD
S1130930CF911F910F91FF90EF90DF90CF90BF90D8
S1130940AF909F908F907F906F905F904F903F906B
S113095008954F925F926F927F928F929F92BF926F
S1130960CF92DF92EF92FF920F931F93CF93DF9377
S1130970CDB7DEB76C970FB6F894DEBF0FBECDBF10
S1130980F82ED62E142FB22EDE011196ECE9F0E0EB
S11309908CE101900D928150E1F700D000D000D09D
S11309A0EDB7FEB731960F2EF5E48F2EF1E09F2EB2
S11309B0F02DADB7BEB712969C928E9211970F2E62
S11309C0FEE86F2EF0E07F2EF02D73826282148396
S11309D015820E94560A2DB73EB72A5F3F4F0FB6C5
S11309E0F8943EBF0FBE2DBF81E061E00E94540128
S11309F0C4010E946D0181E063E00E94540182E918
S1130A0090E00E946D0100D000D000D0EDB7FEB799
S1130A103196ADB7BEB712969C928E92119773829F
S1130A206282D48215820E94560A2DB73EB72A5F8D
S1130A303F4F0FB6F8943EBF0FBE2DBF81E064E078
S1130A400E945401C4010E946D0181E066E00E948D
S1130A5054018AE30E94670100D000D000D0EDB7B2
S1130A60FEB73196ADB7BEB712969C928E9211978F
S1130A7073826282F48215820E94560A2DB73EB7B1
S1130A802A5F3F4F0FB6F8943EBF0FBE2DBF81E0E3
S1130A9067E00E945401C4010E946D0181E06CE092
S1130AA00E9454018B2D90E0880F991F880F991F85
S1130AB0A1E0B0E0AC0FBD1F8A0F9B1F0E946D0127
S1130AC000D000D000D0EDB7FEB73196ADB7BEB7B9
S1130AD012969C928E92119773826282048315827D
S1130AE00E94560A2DB73EB72A5F3F4F0FB6F894BF
S1130AF03EBF0FBE2DBF82E061E00E945401C401DD
S1130B000E946D0182E063E00E9454010F2EF4E91B
S1130B104F2EF0E05F2EF02DC2010E946D0100D037
S1130B2000D000D0EDB7FEB73196ADB7BEB7129680
S1130B309C928E92119773826282E48215820E9443
S1130B40560A2DB73EB72A5F3F4F0FB6F8943EBF03
S1130B500FBE2DBF82E064E00E945401C4010E94D4
S1130B606D0182E066E00E945401C2010E946D01A1
S1130B7082E067E00E94540186E990E00E946D01E2
S1130B8000D000D000D0EDB7FEB73196ADB7BEB7F8
S1130B9012969C928E92119773826282C4821582FD
S1130BA00E94560A2DB73EB72A5F3F4F0FB6F894FE
S1130BB03EBF0FBE2DBF82E069E00E945401C40114
S1130BC00E946D01F8940E94B10080933C017894D6
S1130BD000D000D000D0EDB7FEB73196ADB7BEB7A8
S1130BE012969C928E92119780E690E09383828372
S1130BF080913C01848315820E94560A2DB73EB72A
S1130C002A5F3F4F0FB6F8943EBF0FBE2DBF82E060
S1130C106CE00E945401C4010E946D0182E06EE008
S1130C200E94540189E990E00E946D0110923D01F7
S1130C30849915C002C0849912C08FEF94E3ACE08C
S1130C4081509040A040E1F700C000000E94600184
S1130C508F2D6D2D412F2B2D0E94B9030DC0AFE9AF
S1130C60BFE01197F1F700C0000080913D018F5F54
S1130C7080933D018C33F8F26C960FB6F894DEBF86
S1130C800FBECDBFDF91CF911F910F91FF90EF90D9
S1130C90DF90CF90BF909F908F907F906F905F90E8
S1130CA04F9008952F923F924F925F926F927F924E
S1130CB08F929F92AF92BF92CF92DF92EF92FF9268
S1130CC00F931F93CF93DF93CDB7DEB7A1970FB6E2
S1130CD0F894DEBF0FBECDBFDE011696ECE9F0E05E
S1130CE08CE101900D928150E1F7822F622F0E94D6
S1130CF0DD015C01802F602F0E94DD014C018E2DEF
S1130D006E2D0E94DD013C018C2D6C2D0E94DD01B5
S1130D102C010E946001CC246894C1F88E010F5FFD
S1130D201F4F0F2EF0E6EF2EF0E0FF2EF02D0F2ECA
S1130D30F4E62F2EF0E03F2EF02DDD246894D1F858
S1130D408CE00E94180100D000D000D0EDB7FEB7AF
S1130D503196ADB7BEB712961C930E931197F382DA
S1130D60E282958284820E94560AEDB7FEB73696D7
S1130D700FB6F894FEBF0FBEEDBF81E061E00E94A4
S1130D805401C8010E946D0181E063E00E94540196
S1130D908FE20E94670100D000D000D0EDB7FEB70B
S1130DA03196ADB7BEB712961C930E931197F3828A
S1130DB0E282758264820E94560AEDB7FEB73696C7
S1130DC00FB6F894FEBF0FBEEDBF81E064E00E9451
S1130DD05401C8010E946D0181E066E00E94540143
S1130DE08FE20E94670100D000D000D0EDB7FEB7BB
S1130DF03196ADB7BEB712961C930E931197F3823A
S1130E00E282558244820E94560AEDB7FEB73696B6
S1130E100FB6F894FEBF0FBEEDBF81E067E00E94FD
S1130E205401C8010E946D0181E06AE00E945401EE
S1130E30C501880F991F880F991F26E030E02C0FF9
S1130E403D1F820F931F0E946D0181E06EE00E949E
S1130E505401C1010E946D0181E06C2D0E94540176
S1130E608EE00E94180186994AC032E0C31641F40C
S1130E706FE18616910449F10894811C911C35C0D8
S1130E8085E0C81641F49CE06916710411F10894D8
S1130E90611C711C2AC0A8E0CA1641F4B3E64B16C3
S1130EA05104D9F00894411C511C1FC0ECE0CE162B
S1130EB041F4F6E0AF16B104B4F40894A11CB11CDB
S1130EC014C02EE0C21689F491C088249924839416
S1130ED00CC066247724639408C00F2EFBE04F2EC9
S1130EE05524F02D02C0AA24BB248FEF92E5A7E07D
S1130EF081509040A040E1F700C000006DC085998A
S1130F0050C092E0C91641F4A1E08A16910441F15F
S1130F100894810891083BC0B5E0CB1641F4E1E0A8
S1130F206E16710419F108946108710830C0F8E074
S1130F30CF1641F42BE042165104F1F00894410815
S1130F40510825C03CE0C31639F4A114B104D1F012
S1130F500894A108B1081BC06EE0C616C1F448C0CD
S1130F600F2EFFE18F2E9924F02D11C00F2EFCE0DF
S1130F706F2E7724F02D0BC00F2EF3E64F2E552441
S1130F80F02D05C00F2EF6E0AF2EBB24F02D8FEF11
S1130F9092E5A7E081509040A040E1F700C0000036
S1130FA01BC0849919C09EE0C91649F0ACE0CA166A
S1130FB041F0B8E0CB1651F0E3E0CE0E0BC0CD2CDF
S1130FC009C00F2EFEE0CF2EF02D04C00F2EFCE042
S1130FD0CF2EF02D0E9460018FEF92E5A7E08150A3
S1130FE09040A040E1F700C00000AACEA40101C0D7
S1130FF0A40121E030E09BE06916710411F020E0C7
S113100030E081E090E0A9E06A16710411F080E01C
S113101090E0282B392B91E0B4E06B16710409F0B1
S113102090E081E0E6E06E16710409F080E0892B1F
S113103090E0822B932B009721F04F31510571F5ED
S11310401CC0F2E06F16710449F5CA014D97833054
S1131050910520F52CE042165104A9F080E190E0BE
S113106048165906B1F0049684369105C9F70F2E37
S1131070FCE18F2E9924F02D11C00F2EFEE18F2E4E
S11310809924F02D0BC00F2EFDE18F2E9924F02D05
S113109005C00F2EFDE18F2E9924F02DC5010E946D
S11310A0EF01282EC4010E94EF01A82EC3010E9463
S11310B0EF01882EC2010E94EF01682E0E94E60013
S11310C080ED0E94EC0080E00E94EC000E94F3009E
S11310D00E94E60081ED0E94EC0081E00E94FC0089
S11310E000E411E08093400181E00E94FC00D801FB
S11310F08E937D0181E00E94FC000F2EFEEFCF2E27
S1131100FFEFDF2EF02DC00ED11EF601808381E0AB
S11311100E94FC00D60116968C9381E00E94FC008C
S1131120F601838381E00E94FC00D60114968C931F
S113113080E00E94FC00F60185830E94F300D60142
S113114016962C9216971396AC92139714968C922B
S1131150149715966C920E94E60080ED0E94EC00B4
S113116080E00E94EC00809140010E94EC00F701B5
S113117080810E94EC00D6018C910E94EC00F60163
S113118086810E94EC00D60113968C910E94EC009B
S1131190F60184810E94EC00D60115968C910E9480
S11311A0EC000E94F3000E9460018CE00E94180190
S11311B080914001F7016081D6014C9116962C91E3
S11311C0169713960C9113971496EC901497159602
S11311D0CC900E94A904A1960FB6F894DEBF0FBE6E
S11311E0CDBFDF91CF911F910F91FF90EF90DF90D2
S11311F0CF90BF90AF909F908F907F906F905F90B3
S11312004F903F902F9008950E942E010E946001FC
S11312100E94E0000E9460090E947B098FEF91EE1A
S1131220A4E081509040A040E1F700C000008FE0AE
S113123081BB80EF82BB85E08EBD8DEE95E89DBDC0
S11312408CBD84E089BF78940F2EF0E4AF2EF1E0DA
S1131250BF2EF02D4501089481089108E5012297DD
S11312600F2EF6E06F2E7724F02D6C0E7D1E0F2EC0
S1131270F3E04F2E5524F02D4C0E5D1E2224332412
S1131280689422F82C0E3D1E0E94A701D5018C9172
S1131290F40160814881D3012C91F2010081D101D4
S11312A0EC90E3E4F1E0C0800E94A9048FEF99E69A
S11312B0A8E181509040A040E1F700C00000E4CFD5
S11312C01BB888E08AB996E890BD10BC89B9089526
S11312D05D9BFECF8CB90895CF93DF93EC01888199
S11312E0882331F021960E94680989918823D9F7CF
S11312F0DF91CF91089588EB90E00E946C098FEF05
S113130099EFA0E081509040A040E1F700C00000B8
S11313108DEB90E00E946C098FEF99EFA0E0815073
S11313209040A040E1F700C000008BEC90E00E94E8
S11313306C098FEF99EFA0E081509040A040E1F755
S113134000C000000895EF92FF920F931F93CF9374
S1131350DF93CDB7DEB7C45BD0400FB6F894DEBFE1
S11313600FBECDBF7C0187EF90E00E946C098FEF28
S113137091EEA4E081509040A040E1F700C000004D
S11313808E010F5F1F4F86E9D8011D928A95E9F7F8
S113139000D000D000D0EDB7FEB73196ADB7BEB7E0
S11313A012961C930E93119780E291E093838283AB
S11313B0F582E4820E94560A0F2EF7E9EF2EFF24ED
S11313C0F02DEC0EFD1E8EE1F70111928A95E9F7DE
S11313D0D8010D900020E9F7CD01801B910BEDB7EA
S11313E0FEB73196ADB7BEB71296FC92EE92119746
S11313F02CE231E0338322830196958384830E9417
S1131400560AEDB7FEB736960FB6F894FEBF0FBE78
S1131410EDBFC7010E946C098FEF90E7A2E08150F5
S11314209040A040E1F700C00000C8010E946C0990
S11314308FEF91EEA4E081509040A040E1F700C00E
S11314400000CC54DF4F0FB6F894DEBF0FBECDBF03
S1131450DF91CF911F910F91FF90EF90089597FB2B
S1131460092E07260AD077FD04D00CD006D0002020
S11314701AF4709561957F4F0895F6F790958195CC
S11314809F4F0895AA1BBB1B51E107C0AA1FBB1F96
S1131490A617B70710F0A61BB70B881F991F5A95FC
S11314A0A9F780959095BC01CD010895AEE0B0E018
S11314B0ECE5FAE00C94040D0D891E8986E08C831A
S11314C01A8309838FEF9FE79E838D83AE01475E66
S11314D05F4FCE0101966F89788D0E94780AEF8163
S11314E0F885E00FF11F10822E96E4E00C94200D95
S11314F0ADE0B0E0EEE7FAE00C94F60C3C017D8739
S11315006C875A01FC0117821682838181FFC8C14E
S11315102E010894411C511CF3019381EC85FD8537
S113152093FD859193FF8191FD87EC87882309F4CE
S1131530B3C1853241F493FD859193FF8191FD8779
S1131540EC87853229F490E0B3010E946C0CE4CF5F
S1131550FF24EE2410E01032B0F48B3269F08C32A8
S113156028F4803251F0833271F40BC08D3239F09B
S1131570803349F411602CC01260146029C01860D3
S113158027C0106125C017FD2EC0282F20532A30F4
S113159098F416FF08C08F2D880FF82EFF0CFF0C4F
S11315A0F80EF20E15C08E2D880FE82EEE0CEE0C00
S11315B0E80EE20E10620CC08E3221F416FD6CC1EE
S11315C0106406C08C3611F4106802C0883659F4D1
S11315D0EC85FD8593FD859193FF8191FD87EC87D3
S11315E0882309F0B8CF982F9554933018F090526F
S11315F0933038F424E030E0A20EB31E3FE3398385
S11316000FC0833631F0833781F0833509F05AC037
S113161022C0F5018081898322E030E0A20EB31E4E
S113162021E0C22ED12C420114C092E0292E312C8B
S11316302A0C3B1CF5018080918016FF03C06F2D9E
S113164070E002C06FEF7FEFC4010E94610C6C0177
S113165051011F7715C082E0282E312C2A0C3B1C27
S1131660F5018080918016FF03C06F2D70E002C0E9
S11316706FEF7FEFC4010E94560C6C01106851019A
S113168013FD1CC006C080E290E0B3010E946C0C04
S1131690EA948E2D90E0C816D906A8F30FC0F40181
S11316A017FD859117FF81914F0190E0B3010E94CE
S11316B06C0CE110EA940894C108D108C114D10457
S11316C071F7E7C0843611F0893651F5F50117FF3B
S11316D007C080819181A281B38124E030E008C0F9
S11316E080819181AA2797FDA095BA2F22E030E04E
S11316F0A20EB31E012F0F76B7FF08C0B095A095B8
S1131700909581959F4FAF4FBF4F0068BC01CD01AD
S1131710A2012AE030E00E94980CD82ED4183FC0D1
S1131720853721F41F7E2AE030E020C0197F8F36F0
S1131730A9F0803720F4883509F0AEC00BC080379B
S113174021F0883709F0A8C001C0106114FF09C056
S1131750146007C014FF08C0166006C028E030E01B
S113176005C020E130E002C020E132E0F50117FFBE
S113177007C0608171818281938144E050E006C09A
S11317806081718180E090E042E050E0A40EB51EDB
S1131790A2010E94980CD82ED418012F0F7706FFAF
S11317A009C00E7FDF1430F404FF06C002FD04C03C
S11317B00F7E02C01D2D01C01F2D802F90E004FF5D
S11317C00CC0FE01ED0DF11D2081203311F4097EC2
S11317D009C002FF06C01E5F05C08678907000979E
S11317E009F01F5F802E992403FD12C000FF0DC075
S11317F0FD2C1E1550F4FE0CF11A1E2D06C080E2BD
S113180090E0B3010E946C0C1F5F1E15C0F304C06E
S11318101E1510F4E11A01C0EE2484FE0FC080E30B
S113182090E0B3010E946C0C82FE1FC081FE03C0D5
S113183088E590E010C088E790E00DC0C401867888
S11318409070009791F081FC02C080E201C08BE2AD
S113185007FD8DE290E0B3010E946C0C06C080E3AA
S113186090E0B3010E946C0CFA94DF14C0F3DA9494
S1131870F201ED0DF11D808190E0B3010E946C0C2A
S1131880DD20A9F706C080E290E0B3010E946C0C51
S1131890EA94EE20C1F740CEF3018681978102C01D
S11318A08FEF9FEF2D96E2E10C94120DFC01059051
S11318B0615070400110D8F7809590958E0F9F1F4E
S11318C00895FC016150704001900110D8F7809593
S11318D090958E0F9F1F08950F931F93CF93DF93BF
S11318E08C01EB018B8181FF1BC082FF0DC02E8117
S11318F03F818C819D812817390764F4E881F9813F
S11319000193F983E88306C0E885F985802F09955A
S1131910009731F48E819F8101969F838E8302C04C
S11319200FEF1FEFC801DF91CF911F910F91089521
S1131930FA01AA27283051F1203181F1E8946F93FC
S11319406E7F6E5F7F4F8F4F9F4FAF4FB1E03ED0A2
S1131950B4E03CD0670F781F891F9A1FA11D680F40
S1131960791F8A1F911DA11D6A0F711D811D911D73
S1131970A11D20D009F468943F912AE0269F1124E8
S11319803019305D3193DEF6CF010895462F47704C
S1131990405D4193B3E00FD0C9F7F6CF462F4F70A7
S11319A0405D4A3318F0495D31FD4052419302D005
S11319B0A9F7EACFB4E0A6959795879577956795AB
S11319C0BA95C9F700976105710508959B01AC01AB
S11319D00A2E06945795479537952795BA95C9F7D2
S11319E0620F731F841F951FA01D08952F923F92AD
S11319F04F925F926F927F928F929F92AF92BF921B
S1131A00CF92DF92EF92FF920F931F93CF93DF93C6
S1131A10CDB7DEB7CA1BDB0B0FB6F894DEBF0FBE23
S1131A20CDBF09942A88398848885F846E847D8470
S1131A308C849B84AA84B984C884DF80EE80FD8072
S1131A400C811B81AA81B981CE0FD11D0FB6F894E8
S1111A50DEBF0FBECDBFED010895F894FFCFA9
S1131A5E253264004F4B005365747570204D656ECE
S1131A6E75003C2D002D3E00456469742054696D4B
S1131A7E6500004564697420446174650000253274
S1131A8E78003A002F0032300020430053415400B6
S1131A9E53554E004D4F4E00545545005745440086
S1131AAE544855004652490041540D0A0041542BE6
S1131ABE43574D4F44453D310D0A0041542B435776
S1131ACE4A41503D22436F6E6E6563746966792D8B
S1131ADE54756E67222C2274756E673635393662EC
S1131AEE6B686E220D0A0041542B434950535441E6
S1131AFE52543D22544350222C223139322E313647
S1131B0E382E3135362E31222C383038300D0A002D
S1131B1E5550444154452025640D0A0041542B432D
S10F1B2E495053454E443D25640D0A0007
S9030000FC
