S018000050726F6A6563744B54476865704E6F692E73726563EC
S11300000C942A000C9447000C9447000C9447006D
S11300100C9447000C9447000C9447000C94470040
S11300200C9447000C9447000C9447000C94470030
S11300300C9447000C9447000C9447000C94470020
S11300400C9447000C9447000C9447000C94470010
S11300500C94470011241FBECFE5D4E0DEBFCDBF12
S113006010E0A0E6B0E0EEE8F3E002C005900D92E7
S1130070A036B107D9F710E0A0E6B0E001C01D92A8
S1130080AC36B107E1F70E949A010C94C5010C94B7
S11300900000B99AC1988FE39CE90197F1F700C079
S11300A00000C19A0895B998B199FECFB19BFECFD3
S11300B0B199FECF089528E030E0B19BFECF90E5E2
S11300C09A95F1F7B19B03C0880F816001C0880F36
S11300D0B199FECF2150304081F70895C098B89A65
S11300E08FEB93E00197F1F700C00000B8989AEB0A
S11300F09A95F1F700C086B3E3E3F3E03197F1F7A3
S113010000C0000081700895882359F0C098B89AFF
S113011080E18A95F1F7B8988AEA8A95F1F700C0E8
S11301200895C098B89A80EA8A95F1F7B8988AE158
S11301308A95F1F700C00895C098B89A80E18A952D
S1130140F1F7B89888E18A95F1F796B382E98A9530
S1130150F1F700C081E090FF80E00895CF93DF9332
S1130160C8E0D0E00E949C00879588278795D695A3
S1130170D82BC150B9F78D2FDF91CF910895CF932C
S1130180DF93D82FC8E08D2F81700E948400D6950C
S1130190C150C9F7DF91CF910895CF93DF930E94A7
S11301A06E008CEC0E94BF0084E40E94BF000E9499
S11301B09C008823E1F30E946E008CEC0E94BF0037
S11301C08EEB0E94BF000E94AE00D82F0E94AE00AA
S11301D0C82F0E946E00D295DF702D2F30E08C2F37
S11301E090E08770907082959295907F9827807F99
S11301F09827822B932BDF91CF91089511B886E431
S113020080B984E086BF089584EA86BF06B607FEF7
S1130210FDCF089583B984E886BF06B607FEFDCFF7
S1130220089584E986BF8FE19EE40197F1F700C049
S1130230000008958295880F880F807C846886BFAB
S113024006B607FEFDCF83B108958BB3806F8BBBD9
S1130250DA9A8AB38F708ABB89B3DA98DA9A99B337
S1130260DA9892959F70807F892B08959BB39F7035
S1130270282F207F292B2BBBDA9ADA988295807F4E
S1130280982B9BBBDA9ADA9808958FE39FE1019744
S1130290F1F700C0000008958FEF8ABB8ABBD8989D
S11302A0DA98DA9ADD9ADA980E94450188E20E9487
S11302B036010E94450182E00E9436010E944501F8
S11302C08CE00E9436010E94450186E00E943601BE
S11302D00E9445010895D89882E00E9436010E9448
S11302E045010895D8988295880F880F807C860FE1
S11302F0815C0E9436010E9445010895D89881E0EE
S11303000E9436010E9445010895D89A0E94360140
S11303100E9445010895CF93DF93EC0188818823DF
S113032031F021960E94850189918823D9F7DF91C4
S1130330CF9108958FEF87BB18BA88B3809588BB97
S11303408FEF94E3ACE081509040A040E1F700C00F
S11303500000F3CF1BB888E08AB996E890BD10BCC2
S113036089B908958CB95D9BFECF0895CF93DF932F
S1130370EC018881882331F021960E94B201899191
S11103808823D9F7DF91CF910895F894FFCF29
S9030000FC
